:020000040800F2
:10000000F00400209D01000867190008C9170008C6
:10001000651900086D040008151A000800000000AA
:100020000000000000000000000000006B19000844
:100030007506000800000000691900086D19000825
:10004000B7010008B7010008B7010008B7010008B0
:10005000B7010008B7010008B7010008B7010008A0
:10006000B7010008B7010008B7010008B701000890
:10007000B7010008B7010008B7010008B701000880
:10008000B7010008B701000839030008B7010008EC
:10009000B7010008B7010008B7010008B701000860
:1000A000B7010008B7010008B7010008B701000850
:1000B000B7010008B7010008B7010008B701000840
:1000C000B7010008B7010008B7010008B701000830
:1000D000B7010008B7010008B7010008B701000820
:1000E000B7010008B7010008B7010008B701000810
:1000F000B7010008B7010008B7010008B701000800
:10010000B7010008B7010008B7010008B7010008EF
:10011000B7010008B7010008B7010008B7010008DF
:10012000C5050008B7010008B7010008B7010008BD
:10013000B7010008B7010008B7010008B7010008BF
:10014000B7010008B7010008B7010008B7010008AF
:10015000B7010008B7010008B7010008B70100089F
:10016000B7010008B7010008B7010008B70100088F
:10017000B7010008B7010008B7010008000000003F
:10018000B7010008B7010008DFF80CD000F07AF8DA
:1001900000480047551A0008F00400200648804730
:1001A00006480047FEE7FEE7FEE7FEE7FEE7FEE75C
:1001B000FEE7FEE7FEE7FEE7F919000889010008FF
:1001C0002DE9F05F0546002092469B46884606468C
:1001D000814640241BE0284641464746224600F01F
:1001E00041F853465A46C01A914110D31146184659
:1001F000224600F028F82D1A67EB01084F462246E8
:100200000120002100F01FF817EB00094E41201ECD
:10021000A4F10104DFDC484631462A464346BDE8E6
:10022000F09FD2B201E000F8012B491EFBD27047CB
:100230000022F6E710B513460A4604461946FFF7B2
:10024000F0FF204610BD202A04DB203A00FA02F11C
:10025000002070479140C2F1200320FA03F31943B4
:1002600090407047202A04DB203A21FA02F0002156
:10027000704721FA02F3D040C2F1200291400843B6
:1002800019467047064C074D06E0E06840F0010350
:1002900094E8070098471034AC42F6D3FFF778FF94
:1002A000C81A0008E81A000810B50146806B026CF5
:1002B00012F0500F05D0026CD20626D500F086FA57
:1002C00010BD016C41F40071016401688A6812F08C
:1002D000405F17D1027EAAB9CA6A12F4700F02D029
:1002E0008A6852050ED44A6822F020024A60016CE6
:1002F00021F480710164016CC90403D4016C41F0E4
:100300000101016400F060FA10BD806BC26CBDE8B1
:1003100010400846104710B5806B40210164416CC5
:1003200041F00401416400F051FA10BD10B5806B3A
:1003300000F04BFA10BD0000014800F048BA000080
:100340001C000020464910B54A6822F440324A6039
:100350004A6843681A434A6001684A6822F4807216
:100360004A6001684A68036942EA03224A600168F8
:100370004A6822F040724A6001684A6883681A43FA
:100380004A6001688A6822F400628A6001688A68AB
:10039000C3681A438A60816A6FF07062D142016853
:1003A0008A6822F070628A6001688A680CD0836A69
:1003B0001A438A6001688A6822F040528A600168A4
:1003C0008A68C36A1A4301E022F040528A600168D9
:1003D0008A6822F002028A6001688A68037E42EA23
:1003E00043028A6090F82010002901684A680FD003
:1003F00042F400624A6001684A6822F460424A603E
:1004000001684A68174C436A04EB43331A4301E01E
:1004100022F400624A600168CA6A22F47002CA6269
:100420000168CA6A838B104C04EB03531A43CA62F7
:1004300001688A6822F400728A6001688A6890F80C
:10044000303042EA43228A6001688A6822F480627E
:100450008A6001688A68406942EA8020886010BD2D
:100460000023014000E0FFFF0000F0FFFEE7000076
:1004700030B52A4C034601202578012D01D19FED8E
:10048000280A00EE901A4FF07E55B8EE601ADFEDA4
:10049000250A61EE201A9FED241A61EE811A61EEA1
:1004A000801AF5EEC01AF1EE10FA03D311EE901A8D
:1004B000A94200DD002001EE903A1C490A23F8EE23
:1004C000611A0988B1FBF3F161EEA01A02EE101A6D
:1004D00061EE811AB8EE422A61EE801AB4EEE12A8A
:1004E000F1EE10FA00D2002001EE902AF8EE611A27
:1004F00061EEA00A60EE810A20EE800AB5EEC00A25
:10050000F1EE10FA03D310EE101AA94201DD00201B
:1005100030BD0028FCD00021217030BD000000203B
:100520006666663F33335340000080390800002080
:1005300070B5224D0121284600F010FE80F0010424
:100540000221284600F00AFE80F0010044EA40043F
:100550000421284600F002FE80F0010044EA8004F5
:100560000821284600F0FAFD80F0010044EAC004AA
:100570001021284600F0F2FD80F0010044EA00144A
:100580002021284600F0EAFD80F0010044EA4014F2
:100590004021284600F0E2FD80F0010044EA80148A
:1005A0008021284600F0DAFD80F00100044944EA89
:1005B000C01000EB4000088070BD00000008024041
:1005C00008000020014800F07BBB00006400002010
:1005D00001681823CAB2103AB2FBF3F2054B6FF36D
:1005E0000901032A9B5CC36500D9091D8165084682
:1005F00070470000B01A000810B5014600208B6952
:100600008A6A4FF0C07453B1B3F5005F15D072B170
:10061000012A0CD0022A0AD0032A09D104E01AB117
:10062000012A06D0022A03D1C96AC90100D50120D6
:1006300010BDC96AA142FAD010BD002AF7D0012A24
:10064000F2D0022AF3D0032AF3D010BD30B50468EB
:10065000256825F480252560046863608368402B45
:10066000036803D099600068C26030BD9A6000687A
:10067000C16030BD704770477047000078B50024F6
:10068000009490F83C20012A19D0012280F83C20E7
:100690000A6807230568092A13D9EE680A3A02EBAB
:1006A000420293409E43EE600B788A680A3B03EB5C
:1006B00043039A400368DD682A43DA6010E00220B1
:1006C00078BD2E6902EB420293409E432E610B7867
:1006D0008A6803EB43039A4003681D692A431A6141
:1006E0004A681F23072A13D205686E6B521E02EB5D
:1006F000820293409E436E630B790A885B1E92B21E
:1007000003EB83039A4003685D6B2A435A6327E037
:1007100005680D2A12D22E6BD21F02EB8202934083
:100720009E432E630B790A88DB1F92B203EB83038F
:100730009A4003681D6B2A431A6311E0EE6A0D3A72
:1007400002EB820293409E43EE620B790A880D3BD6
:1007500092B203EB83039A400368DD6A2A43DA62AC
:10076000164B0568144A9D4206D10D68122D03D11F
:10077000556845F48005556005689D4218D10B68A1
:10078000102B01D0112B13D1536843F40003536095
:10079000096810290CD10A490A4A0968B1FBF2F12B
:1007A00001EB8101490000E0491E00910029FBD1C5
:1007B00080F83C40002078BD00230140002001402B
:1007C0001800002040420F0070477047704770B516
:1007D0000446006801684268C1F34001C2F3401258
:1007E00051B34AB3216CC90603D4216C41F40071A2
:1007F0002164816811F0405F17D1217EA9B9C16AD7
:1008000011F4700F02D0816849050ED4416821F0BF
:1008100020014160206C20F480702064206CC004B2
:1008200003D4206C40F0010020642046FFF7CCFF89
:1008300021686FF012000860206801684268C1F307
:100840008001C2F3C01289B382B3216CC90603D4FC
:10085000216C41F400512164816811F4401F1ED1C4
:10086000816B11F4401F02D08168490517D441689B
:10087000490514D4816811F0405F10D1217E71B90F
:10088000416821F080014160206C20F48050206498
:10089000206CC00503D4206C40F001002064204689
:1008A000FFF7EAFE21686FF00C000860206801681D
:1008B000426811F0010FC2F380120ED06AB10068D5
:1008C000C0070AD0206C40F480302064204600F03D
:1008D00046F821686FF001000860206801684268EE
:1008E000C1F34011C2F3806200290DD0002A0BD061
:1008F000616C41F0020161646FF0200505602046E3
:10090000FFF764FF2068056070BD70B504004FF00C
:10091000000503D0206C002610B107E0012070BD57
:10092000204600F01DF8666484F83C60206CC00628
:1009300010D4206C20F4885040F00200206420463F
:10094000FFF700FD6664206C20F0020040F001001B
:10095000206400E0012584F83C60284670BD7047A3
:1009600070B586B0064614216846FFF761FC214940
:10097000306888423CD120480025016841F48071EC
:100980000160006800F4807005901B48143801680D
:1009900041F0010101600068694600F00100059026
:1009A0000E2000900320CDE90105144800F0FAFA6A
:1009B000144C1348C4E900050015A560C4E90350B0
:1009C000400060618000C4E90605C000C4E9080574
:1009D000204600F045FA08B1FFF74DFEB46300224F
:1009E00011461220A66300F031FC122000F020FC1A
:1009F00006B070BD002001404438024000000240B3
:100A00001064024064000020F8B50E460021044640
:100A1000009190F83C00012807D0012084F83C00A8
:100A200020688368DB0702D011E00220F8BD8368EC
:100A300043F0010383603748374B0068B0FBF3F0A5
:100A400000EB400000E0401E00900028FBD1206831
:100A50008368DB075CD0236C40F20165AB4343F451
:100A6000807323644068400505D5206C20F4005055
:100A700040F480502064206CC00404D5606C20F0E9
:100A80000600606400E0616484F83C10A16B2448B7
:100A9000224DC863A16B23480864A16B2248C86437
:100AA00021686FF0220008602068416841F0806191
:100AB00041602068816841F480718160216813463B
:100AC00032464C31A06B00F035FA68681749C00611
:100AD000206806D088421BD1816811F0405F13D096
:100AE00016E08842F8D0124A904203D1D1F804238C
:100AF000D206F1D00F4A90420AD1D1F8041301F086
:100B00001F011029E8D303E0816841F08041816032
:100B10000020F8BD1800002040420F0000230140D3
:100B2000A90200082D030008170300080020014057
:100B3000002101400022014070B5040003D094F868
:100B4000200010B104E0012070BD204600F082F8C2
:100B50002068016821F00201016000F009FB0546F0
:100B6000052604E000F004FB401B0A2811D8206889
:100B700040688007F6D42068016841F001010160F7
:100B800000F0F6FA05460BE000F0F2FA401B0A28E6
:100B900006D9606A40F40030606284F82060D2E7D1
:100BA00020684068C007EFD0207E012820680168D7
:100BB0003DD021F080010160607E0128206801683D
:100BC00038D021F040010160A07E01282068016832
:100BD00033D021F020010160E07E01282068016807
:100BE0002ED041F010010160207F012820680168AB
:100BF00029D021F008010160607F01282068016888
:100C000024D021F004010160D4E902010843D4E9B1
:100C10000412114308436168491E08432168C861F2
:100C200000206062012084F82000002070BD41F0A7
:100C30008001C0E741F04001C5E741F02001CAE76B
:100C400021F01001CFE741F00801D4E741F00401A1
:100C5000D9E7000010B586B0044614216846FFF7B6
:100C6000E7FA14492068884221D11348002102681C
:100C700042F000720260006800F0007005900E48BB
:100C80001038026842F001020260006800F00100C2
:100C900005904FF4C05000900220CDE901010320DF
:100CA0000390092004906946044800F07BF906B0DF
:100CB00010BD0000006400404038024000000240C7
:100CC0002DE9F84304464FF00009CDF80090634841
:100CD0004FF41651A56D0068B0FBF1F72E6894F83B
:100CE0005C10082000FA01F131420FD021680A6837
:100CF00052070BD50A6822F004020A6094F85C10CF
:100D00008840A860606D40F00100606594F85C1058
:100D10004FF0010808FA01F0304208D02168496913
:100D2000090604D5A860606D40F00200606594F883
:100D30005C1004208840304208D021680968890787
:100D400004D5A860606D40F00400606594F85C1004
:100D500010208840304218D021680968090714D54E
:100D6000A86020680168490304D50068000308D51D
:100D7000A16C07E00168C90503D4016821F00801EE
:100D80000160216C09B12046884794F85C1020204E
:100D90008840304231D021680968C9062DD5A86045
:100DA00094F8350005282068016806D0490347D526
:100DB000006800031DD4616C1CE021F01601016085
:100DC0002068416921F080014161206C08B9A06C64
:100DD00020B12068016821F00801016094F85C10DE
:100DE0003F208840A86084F8349084F83580216DD5
:100DF0001FE0E16B09B120468847606D00282BD0C9
:100E0000606DC00714D0052084F8350020680168A3
:100E100021F0010101600098401C0090B84203D805
:100E200020680068C007F6D184F8349084F83580D3
:100E3000E16C002910D001B02046BDE8F04308471E
:100E40000168C905D5D4016821F01001016084F85A
:100E5000349084F83580CCE7BDE8F8831800002092
:100E60002DE9F041044600F083F906465CB1002507
:100E700084F83450022084F835002068016821F09D
:100E8000010101600DE00120BDE8F08100F070F982
:100E9000801B052805D920206065032084F83500D3
:100EA000F2E720680068C007F0D122681168204886
:100EB0000140D4E901031843D4E90336334318430E
:100EC00063691843A3691843E3691843236A184305
:100ED0000843616A042903D1D4E90B131943084379
:100EE000106020684069666A20F0070130460E43B2
:100EF000012704280CD1A06A0643E06A40B12046CD
:100F0000FFF77AFB20B14020606584F83570BAE7BE
:100F1000206846612046FFF75BFB94F85C203F2188
:100F200091408160656584F835700020ACE7000071
:100F30003F8010F02DE9F0410446866D90F83400B2
:100F4000002501280DD0012084F8340094F8357074
:100F50000020012F07D084F8340002252846BDE880
:100F6000F0810220FBE7022784F835706065204697
:100F7000FFF76CFB94F85C103F208840B06020685D
:100F8000016841F016010160206C20B12068016801
:100F900041F0080101602068016841F00101016031
:100FA000DCE700002DE9F84F00224FF0010803258F
:100FB0004FF00F0E0B6808FA02F42340A3426ED1E3
:100FC0004E68012E05D0022E03D0112E01D0122E14
:100FD00012D186684FEA420C05FA0CF7BE43CF687F
:100FE00007FA0CF7374387604668A6430C79C4F3C9
:100FF0000014944034434460C668570005FA07FC67
:101000008C6826EA0C06BC403443C4604C68022C51
:1010100001D0122C13D1D40800EB8404A346D4F8D9
:10102000209054074FEAD46A0EFA0AF629EA060914
:101030000E6906FA0AF646EA0906CBF82060066849
:101040000C7926EA0C0604F00304BC403443046027
:101050004C68E40065D5364C266846F48046266028
:10106000246822F0030604F480440094314C344494
:10107000A446D4F808489607370F0EFA07F6B4438B
:101080002D4EB04201D1002624E02C4EB04201D1B9
:1010900001261FE02A4EB04202D102261AE040E0AB
:1010A000284EB04201D1032614E0274EB04201D1B0
:1010B00004260FE0254EB04201D105260AE0244E59
:1010C000B04201D1062605E0224EB04201D10726EA
:1010D00000E00826BE402643CCF808681E4E34685F
:1010E0004F689C43FF0300D51C4334601A4C241DF9
:1010F00026684F689E43BF0300D51E432660164EE8
:10110000083634684F689C43FF0200D51C433460A6
:10111000114E0C3634684F689C43BF0200D51C4307
:101120003460521C102AFFF445AFBDE8F88F000070
:1011300044380240003001400000024000040240F8
:1011400000080240000C024000100240001402405F
:1011500000180240001C0240003C014000690840A9
:1011600000D0012070470AB1816170470904FBE794
:1011700001488068704700000C0000200248816828
:1011800002781144816070470C0000200B4810B5B4
:10119000016841F400710160016841F480610160FF
:1011A000016841F480710160032000F06FF80020B5
:1011B00000F006F800F024F8002010BD003C0240CA
:1011C00070B50D4D04464FF47A712878B1FBF0F0FC
:1011D0000A490968B1FBF0F000F0E2FA48B9102CB6
:1011E00007D200222146501E00F030F800206C602B
:1011F00070BD012070BD00000C0000201800002010
:101200000A4808B5016841F480410160006800F4B3
:10121000804000900548001F016841F08051016046
:10122000006800F08050009008BD00004438024083
:10123000002809DB00F01F020121914040098000D5
:1012400000F1E020C0F8001170470000F0B40E4B30
:101250001B680C46C3F30223C3F10705042D00D914
:101260000425191D072901D2002300E0DB1E0126F9
:1012700006FA05F1491E214099409E40761E16400F
:101280003143F0BC00F0C7BB0CED00E0064900F0B4
:10129000070208684FF6FF03184040EA0220034A9D
:1012A00010430860704700000CED00E00000FA05F4
:1012B0002DE9F0470E46050065D0DFF81481D8F817
:1012C0000000F7B200F00F00B04207D288F80070BB
:1012D000D8F8000000F00F00B04254D128683D4C0F
:1012E000810712D5400703D5206840F4E050206004
:1012F0002878000703D5206840F46040206020680B
:10130000A96820F0F000084320602878C0072DD09D
:10131000304968680839012812D0022813D0032800
:1013200011D00968890700292DDA216821F003010D
:1013300001432160FFF71CFF814641F2883A0EE02D
:1013400009688903EFE709688901ECE7FFF710FFF7
:10135000A0EB0901514502D90320BDE8F0872068C0
:10136000696800F00C00B0EB810FEFD1D8F80010E5
:10137000404601F00F01B14207D90770006800F044
:101380000F00B04201D00120E7E72878400705D5DB
:101390002068E96820F4E0500843206028780007BE
:1013A00006D52068296920F4604040EAC100206029
:1013B00000F018F82168084AC1F30311515CC840D5
:1013C0000649086006480068FFF7FAFE0020C4E7F7
:1013D000003C024008380240B81A000818000020FB
:1013E00010000020154810B5006810F00C021448D9
:1013F00013D04110042A0FD0082A0ED10F4C241FFD
:101400002268236802F03F025B0207D52068C0F320
:101410008810A0FB010106E0084610BD2168C1F359
:101420008811A1FB00010023FEF7CAFE2168C1F369
:101430000141491C4900B0FBF1F010BD08380240E1
:101440000024F4002DE9F84F040076D02078DFF86E
:1014500038A3CE4DC00749D0DAF800105046C1F38A
:101460008101012908D00068C0F3810002280AD157
:10147000281D0068400206D52868800336D56068BC
:101480000028E2D032E06068B0F5803F10D0B0F5BF
:10149000A02F286810D020F480302860286820F41D
:1014A000802028606068A0B1FFF762FE06460CE06D
:1014B000286840F48030F4E740F480202860F7E7A3
:1014C000FFF756FE801B642873D828688003F7D581
:1014D0000CE0FFF74DFE064605E000BFFFF748FEB3
:1014E000801B6428F0D828688003F7D42078DFF8C0
:1014F000A08280074FF000093ED5DAF80010504670
:1015000011F00C0F09D00068C0F3810002280BD144
:101510009D48001F0068400206D42868800715D542
:10152000E068012809D111E0E068B8B10120C8F8ED
:101530000000FFF71DFE064605E020E1FFF718FE5C
:10154000801B0228C0D828688007F7D52868216941
:1015500020F0F80040EAC10028600DE0C8F80090D3
:10156000FFF706FE064604E0FFF702FE801B022896
:101570001FD828688007F7D42078000722D5824E2C
:10158000844861696C3671B101210160FFF7F0FD9B
:10159000074604E0FFF7ECFDC01B022809D83068BD
:1015A0008007F7D50EE0C0F80090FFF7E1FD074691
:1015B00005E082E0FFF7DCFDC01B02287DD8306823
:1015C0008007F7D42078400768D5DFF8BCB1002742
:1015D0000BF1380BDBF80000C0000BD4DBF8001077
:1015E00041F08051CBF80010DBF80000012700F03B
:1015F00080500090684E3068C00510D4306840F4C8
:1016000080703060FFF7B4FD009005E0FFF7B0FD9B
:101610000099401A022850D83068C005F6D55A4EB5
:10162000A068683601280FD00528306810D020F057
:1016300001003060306820F004003060A068B8B16C
:10164000FFF796FD00900FE0306840F00100F4E7EE
:1016500040F004003060F7E7FFF78AFD0099411A77
:1016600041F28830814266D830688007F4D50EE0B8
:10167000FFF77EFD009007E0FFF77AFD0099411A21
:1016800041F28830814256D830688007F4D42FB1B7
:10169000DBF8001021F08051CBF80010A069D0B326
:1016A000DAF800205146C2F38102022A4AD0022809
:1016B000484607D0C8F8600000E03CE0FFF758FD5E
:1016C00004463BE04746C8F86000FFF751FD064678
:1016D00005E000BFFFF74CFD801B02282BD82868CF
:1016E0008001F7D4D4E907010843A16A2B4A4908CD
:1016F00002EB0141626A41EA8211084394F82C101E
:1017000040EA01612048001F016001203866FFF7B0
:101710002FFD044605E034E0FFF72AFD001B0228F8
:1017200009D828688001F7D52BE000BFFFF720FD1E
:10173000001B022802D90320BDE8F88F2868800129
:10174000F4D41EE00128F7D00868E26900F48001B3
:10175000914214D1226A00F03F0191420FD147F625
:10176000C071626A0140914209D1A26A00F440311D
:10177000914204D1E16A00F07060884201D00120FA
:10178000DAE70020D8E700000838024000380240BD
:1017900000004742800E4742007000400000FFFFFB
:1017A00010B5401EB0F1807F01D3012010BD4FF075
:1017B000E02460610F21601700F02DF90020A06186
:1017C00007202061002010BDFEE700007FB5002447
:1017D0001F480094019402941C4903940160012560
:1017E0004FF480310561C0E90114057680F820408E
:1017F0001849C0E90A140326C661C46080F8304065
:101800004561FFF782F808B1FEF735FF0095CDE995
:10181000015469460E48FEF731FF08B1FEF72BFF71
:1018200002200090019069460948FEF727FF08B1A1
:10183000FEF721FF0096694605480196FEF71EFF58
:10184000002801D0FEF717FF7FBD000000200140F7
:101850001C0000200100000F0D4810B50B4901606D
:101860001021416000218160C16001614161017608
:1018700041768176C17601774177FFF75DF90028DF
:1018800003D0BDE81040FEF7F6BE10BD0064004076
:10189000C4000020094808B5016841F480010160D6
:1018A0000068002200F48000009011463820FFF705
:1018B000CDFCBDE808403820FFF7BABC3038024004
:1018C000F0B587B014216846FEF7B2FC2148002429
:1018D000016841F080010160016801F0800105911B
:1018E000016841F004010160016801F00401059103
:1018F000016841F001010160016801F001010591F9
:10190000016841F0080101600068134F00F0080011
:101910004FF470460590002231463846FFF723FC0D
:10192000FF2001258DE8310069460C48FFF73AFB9E
:10193000CDE9005469460A480294FFF733FB00964C
:10194000CDE90154694638460394FFF72BFB07B0F5
:10195000F0BD000030380240000C02400008024098
:1019600000000240FEE7704770477047FFF706BC73
:1019700030B593B030216846FEF75AFC14210CA80C
:10198000FEF756FC1A480025016841F080510160BD
:10199000006800F0805011901648016841F48041C1
:1019A00001600068022400F4804011900120009042
:1019B000000401908001CDE90640082008904FF412
:1019C000A870CDE9090404200B906846FFF73AFDA2
:1019D0000CA90F2081E831004FF4A0500F90E002D5
:1019E000109005210CA8FFF763FC13B030BD000078
:1019F00040380240007000400548016841F4700121
:101A0000016003494FF000608039086070470000B2
:101A100088ED00E0FEE70907090E002804DB00F16D
:101A2000E02080F80014704700F00F0000F1E02083
:101A300080F8141D704702E008C8121F08C1002A70
:101A4000FAD170477047002001E001C1121F002A3F
:101A5000FBD17047FFF79AFBFFF78AFFFFF730FFD4
:101A6000FFF718FFFFF7B2FEFFF7F6FE03220D495E
:101A70000D48FEF7C9FF0B4C4FF48057DFF82C8060
:101A80000125A61EFEF754FDA28861882088FEF776
:101A9000EFFC0028F6D1002239464046FFF763FBF1
:101AA0003570EFE7020000201C000020000C02400F
:101AB00000061016000610160000000000000000CE
:101AC0000102030406070809E81A000800000020C4
:101AD0001C000000361A0008041B00081C0000202F
:101AE000D4040000461A00080000000000000000B6
:101AF00000000000010000001000000000000000D5
:041B00000024F400C9
:040000050800018965
:00000001FF
